{
  "_format": "hh-sol-artifact-1",
  "contractName": "MyCoolNFT",
  "sourceName": "contracts/MyCoolNFT.sol",
  "abi": [
    {
      "inputs": [],
      "stateMutability": "nonpayable",
      "type": "constructor"
    },
    {
      "anonymous": false,
      "inputs": [
        {
          "indexed": true,
          "internalType": "address",
          "name": "owner",
          "type": "address"
        },
        {
          "indexed": true,
          "internalType": "address",
          "name": "approved",
          "type": "address"
        },
        {
          "indexed": true,
          "internalType": "uint256",
          "name": "tokenId",
          "type": "uint256"
        }
      ],
      "name": "Approval",
      "type": "event"
    },
    {
      "anonymous": false,
      "inputs": [
        {
          "indexed": true,
          "internalType": "address",
          "name": "owner",
          "type": "address"
        },
        {
          "indexed": true,
          "internalType": "address",
          "name": "operator",
          "type": "address"
        },
        {
          "indexed": false,
          "internalType": "bool",
          "name": "approved",
          "type": "bool"
        }
      ],
      "name": "ApprovalForAll",
      "type": "event"
    },
    {
      "anonymous": false,
      "inputs": [
        {
          "indexed": true,
          "internalType": "address",
          "name": "from",
          "type": "address"
        },
        {
          "indexed": true,
          "internalType": "address",
          "name": "to",
          "type": "address"
        },
        {
          "indexed": true,
          "internalType": "uint256",
          "name": "tokenId",
          "type": "uint256"
        }
      ],
      "name": "Transfer",
      "type": "event"
    },
    {
      "inputs": [
        {
          "internalType": "address",
          "name": "to",
          "type": "address"
        },
        {
          "internalType": "uint256",
          "name": "tokenId",
          "type": "uint256"
        }
      ],
      "name": "approve",
      "outputs": [],
      "stateMutability": "nonpayable",
      "type": "function"
    },
    {
      "inputs": [
        {
          "internalType": "address",
          "name": "owner",
          "type": "address"
        }
      ],
      "name": "balanceOf",
      "outputs": [
        {
          "internalType": "uint256",
          "name": "",
          "type": "uint256"
        }
      ],
      "stateMutability": "view",
      "type": "function"
    },
    {
      "inputs": [
        {
          "internalType": "uint256",
          "name": "tokenId",
          "type": "uint256"
        }
      ],
      "name": "getApproved",
      "outputs": [
        {
          "internalType": "address",
          "name": "",
          "type": "address"
        }
      ],
      "stateMutability": "view",
      "type": "function"
    },
    {
      "inputs": [
        {
          "internalType": "address",
          "name": "owner",
          "type": "address"
        },
        {
          "internalType": "address",
          "name": "operator",
          "type": "address"
        }
      ],
      "name": "isApprovedForAll",
      "outputs": [
        {
          "internalType": "bool",
          "name": "",
          "type": "bool"
        }
      ],
      "stateMutability": "view",
      "type": "function"
    },
    {
      "inputs": [],
      "name": "makeCoolNFT",
      "outputs": [],
      "stateMutability": "nonpayable",
      "type": "function"
    },
    {
      "inputs": [],
      "name": "name",
      "outputs": [
        {
          "internalType": "string",
          "name": "",
          "type": "string"
        }
      ],
      "stateMutability": "view",
      "type": "function"
    },
    {
      "inputs": [
        {
          "internalType": "uint256",
          "name": "tokenId",
          "type": "uint256"
        }
      ],
      "name": "ownerOf",
      "outputs": [
        {
          "internalType": "address",
          "name": "",
          "type": "address"
        }
      ],
      "stateMutability": "view",
      "type": "function"
    },
    {
      "inputs": [
        {
          "internalType": "uint256",
          "name": "tokenId",
          "type": "uint256"
        }
      ],
      "name": "pickRandomFirstWord",
      "outputs": [
        {
          "internalType": "string",
          "name": "",
          "type": "string"
        }
      ],
      "stateMutability": "view",
      "type": "function"
    },
    {
      "inputs": [
        {
          "internalType": "uint256",
          "name": "tokenId",
          "type": "uint256"
        }
      ],
      "name": "pickRandomSecondWord",
      "outputs": [
        {
          "internalType": "string",
          "name": "",
          "type": "string"
        }
      ],
      "stateMutability": "view",
      "type": "function"
    },
    {
      "inputs": [
        {
          "internalType": "uint256",
          "name": "tokenId",
          "type": "uint256"
        }
      ],
      "name": "pickRandomThirdWord",
      "outputs": [
        {
          "internalType": "string",
          "name": "",
          "type": "string"
        }
      ],
      "stateMutability": "view",
      "type": "function"
    },
    {
      "inputs": [
        {
          "internalType": "address",
          "name": "from",
          "type": "address"
        },
        {
          "internalType": "address",
          "name": "to",
          "type": "address"
        },
        {
          "internalType": "uint256",
          "name": "tokenId",
          "type": "uint256"
        }
      ],
      "name": "safeTransferFrom",
      "outputs": [],
      "stateMutability": "nonpayable",
      "type": "function"
    },
    {
      "inputs": [
        {
          "internalType": "address",
          "name": "from",
          "type": "address"
        },
        {
          "internalType": "address",
          "name": "to",
          "type": "address"
        },
        {
          "internalType": "uint256",
          "name": "tokenId",
          "type": "uint256"
        },
        {
          "internalType": "bytes",
          "name": "_data",
          "type": "bytes"
        }
      ],
      "name": "safeTransferFrom",
      "outputs": [],
      "stateMutability": "nonpayable",
      "type": "function"
    },
    {
      "inputs": [
        {
          "internalType": "address",
          "name": "operator",
          "type": "address"
        },
        {
          "internalType": "bool",
          "name": "approved",
          "type": "bool"
        }
      ],
      "name": "setApprovalForAll",
      "outputs": [],
      "stateMutability": "nonpayable",
      "type": "function"
    },
    {
      "inputs": [
        {
          "internalType": "bytes4",
          "name": "interfaceId",
          "type": "bytes4"
        }
      ],
      "name": "supportsInterface",
      "outputs": [
        {
          "internalType": "bool",
          "name": "",
          "type": "bool"
        }
      ],
      "stateMutability": "view",
      "type": "function"
    },
    {
      "inputs": [],
      "name": "symbol",
      "outputs": [
        {
          "internalType": "string",
          "name": "",
          "type": "string"
        }
      ],
      "stateMutability": "view",
      "type": "function"
    },
    {
      "inputs": [
        {
          "internalType": "uint256",
          "name": "tokenId",
          "type": "uint256"
        }
      ],
      "name": "tokenURI",
      "outputs": [
        {
          "internalType": "string",
          "name": "",
          "type": "string"
        }
      ],
      "stateMutability": "view",
      "type": "function"
    },
    {
      "inputs": [
        {
          "internalType": "address",
          "name": "from",
          "type": "address"
        },
        {
          "internalType": "address",
          "name": "to",
          "type": "address"
        },
        {
          "internalType": "uint256",
          "name": "tokenId",
          "type": "uint256"
        }
      ],
      "name": "transferFrom",
      "outputs": [],
      "stateMutability": "nonpayable",
      "type": "function"
    }
  ],
  "bytecode": "0x608060405260405180610160016040528061012f8152602001620046bc61012f9139600890805190602001906200003892919062000a6c565b50604051806101c001604052806040518060400160405280600781526020017f526f6e616c646f0000000000000000000000000000000000000000000000000081525081526020016040518060400160405280600581526020017f4d6573736900000000000000000000000000000000000000000000000000000081525081526020016040518060400160405280600681526020017f4e65796d6172000000000000000000000000000000000000000000000000000081525081526020016040518060400160405280600781526020017f42656e7a656d610000000000000000000000000000000000000000000000000081525081526020016040518060400160405280600681526020017f53756172657a000000000000000000000000000000000000000000000000000081525081526020016040518060400160405280600881526020017f4465427275796e6500000000000000000000000000000000000000000000000081525081526020016040518060400160405280600681526020017f48617a617264000000000000000000000000000000000000000000000000000081525081526020016040518060400160405280600981526020017f4665726e616e646573000000000000000000000000000000000000000000000081525081526020016040518060400160405280600581526020017f4b616e746500000000000000000000000000000000000000000000000000000081525081526020016040518060400160405280600581526020017f484d736f6e00000000000000000000000000000000000000000000000000000081525081526020016040518060400160405280600881526020017f436f7572746f697300000000000000000000000000000000000000000000000081525081526020016040518060400160405280600a81526020017f417562616d6579616e670000000000000000000000000000000000000000000081525081526020016040518060400160405280600681526020017f506172656a6f000000000000000000000000000000000000000000000000000081525081526020016040518060400160405280600581526020017f46656c6978000000000000000000000000000000000000000000000000000000815250815250600990600e6200038f92919062000afd565b506040518061014001604052806040518060400160405280600481526020017f476f61740000000000000000000000000000000000000000000000000000000081525081526020016040518060400160405280600581526020017f446976657200000000000000000000000000000000000000000000000000000081525081526020016040518060400160405280600881526020017f536b696c6c66756c00000000000000000000000000000000000000000000000081525081526020016040518060400160405280600781526020017f506c617966756c0000000000000000000000000000000000000000000000000081525081526020016040518060400160405280600781526020017f536572696f75730000000000000000000000000000000000000000000000000081525081526020016040518060400160405280600781526020017f417765736f6d650000000000000000000000000000000000000000000000000081525081526020016040518060400160405280600481526020017f54616e6b0000000000000000000000000000000000000000000000000000000081525081526020016040518060400160405280600581526020017f426561737400000000000000000000000000000000000000000000000000000081525081526020016040518060400160405280600881526020017f477265617465737400000000000000000000000000000000000000000000000081525081526020016040518060400160405280600681526020017f57696e6e65720000000000000000000000000000000000000000000000000000815250815250600a90600a620005fa92919062000b64565b506040518061016001604052806040518060400160405280600781526020017f537472696b65720000000000000000000000000000000000000000000000000081525081526020016040518060400160405280600681526020017f476f616c6965000000000000000000000000000000000000000000000000000081525081526020016040518060400160405280600a81526020017f4d69646669656c6465720000000000000000000000000000000000000000000081525081526020016040518060400160405280600681526020017f57696e676572000000000000000000000000000000000000000000000000000081525081526020016040518060400160405280600a81526020017f43656e7465724261636b0000000000000000000000000000000000000000000081525081526020016040518060400160405280600881526020017f57696e674261636b00000000000000000000000000000000000000000000000081525081526020016040518060400160405280600881526020017f4c6566744261636b00000000000000000000000000000000000000000000000081525081526020016040518060400160405280600981526020017f52696768744261636b000000000000000000000000000000000000000000000081525081526020016040518060400160405280600681526020017f4465664d6964000000000000000000000000000000000000000000000000000081525081526020016040518060400160405280600c81526020017f41747461636b696e674d6964000000000000000000000000000000000000000081525081526020016040518060400160405280600981526020017f46616c73654e696e650000000000000000000000000000000000000000000000815250815250600b90600b620008a092919062000bcb565b50348015620008ae57600080fd5b506040518060400160405280600b81526020017f466f6f7442616c6c4e46540000000000000000000000000000000000000000008152506040518060400160405280600681526020017f536f63636572000000000000000000000000000000000000000000000000000081525081600090805190602001906200093392919062000a6c565b5080600190805190602001906200094c92919062000a6c565b5050506200099a6040518060400160405280601e81526020017f54686973206973206d79204e465420636f6e74726163742e20636f6f6c210000815250620009a060201b6200107e1760201c565b62000dec565b62000a4081604051602401620009b7919062000d00565b6040516020818303038152906040527f41304fac000000000000000000000000000000000000000000000000000000007bffffffffffffffffffffffffffffffffffffffffffffffffffffffff19166020820180517bffffffffffffffffffffffffffffffffffffffffffffffffffffffff838183161783525050505062000a4360201b60201c565b50565b60008151905060006a636f6e736f6c652e6c6f679050602083016000808483855afa5050505050565b82805462000a7a9062000d76565b90600052602060002090601f01602090048101928262000a9e576000855562000aea565b82601f1062000ab957805160ff191683800117855562000aea565b8280016001018555821562000aea579182015b8281111562000ae957825182559160200191906001019062000acc565b5b50905062000af9919062000c32565b5090565b82805482825590600052602060002090810192821562000b51579160200282015b8281111562000b5057825182908051906020019062000b3f92919062000a6c565b509160200191906001019062000b1e565b5b50905062000b60919062000c51565b5090565b82805482825590600052602060002090810192821562000bb8579160200282015b8281111562000bb757825182908051906020019062000ba692919062000a6c565b509160200191906001019062000b85565b5b50905062000bc7919062000c51565b5090565b82805482825590600052602060002090810192821562000c1f579160200282015b8281111562000c1e57825182908051906020019062000c0d92919062000a6c565b509160200191906001019062000bec565b5b50905062000c2e919062000c51565b5090565b5b8082111562000c4d57600081600090555060010162000c33565b5090565b5b8082111562000c75576000818162000c6b919062000c79565b5060010162000c52565b5090565b50805462000c879062000d76565b6000825580601f1062000c9b575062000cbc565b601f01602090049060005260206000209081019062000cbb919062000c32565b5b50565b600062000ccc8262000d24565b62000cd8818562000d2f565b935062000cea81856020860162000d40565b62000cf58162000ddb565b840191505092915050565b6000602082019050818103600083015262000d1c818462000cbf565b905092915050565b600081519050919050565b600082825260208201905092915050565b60005b8381101562000d6057808201518184015260208101905062000d43565b8381111562000d70576000848401525b50505050565b6000600282049050600182168062000d8f57607f821691505b6020821081141562000da65762000da562000dac565b5b50919050565b7f4e487b7100000000000000000000000000000000000000000000000000000000600052602260045260246000fd5b6000601f19601f8301169050919050565b6138c08062000dfc6000396000f3fe608060405234801561001057600080fd5b506004361061010b5760003560e01c806370a08231116100a2578063b88d4fde11610071578063b88d4fde146102dc578063c575757a146102f8578063c87b56dd14610328578063d129e58314610358578063e985e9c5146103625761010b565b806370a082311461024257806395d89b4114610272578063a22cb46514610290578063b187301f146102ac5761010b565b806323b872dd116100de57806323b872dd146101aa5780632de38d68146101c657806342842e0e146101f65780636352211e146102125761010b565b806301ffc9a71461011057806306fdde0314610140578063081812fc1461015e578063095ea7b31461018e575b600080fd5b61012a6004803603810190610125919061240b565b610392565b6040516101379190612b06565b60405180910390f35b610148610474565b6040516101559190612b21565b60405180910390f35b6101786004803603810190610173919061245d565b610506565b6040516101859190612a9f565b60405180910390f35b6101a860048036038101906101a391906123cf565b61058b565b005b6101c460048036038101906101bf91906122c9565b6106a3565b005b6101e060048036038101906101db919061245d565b610703565b6040516101ed9190612b21565b60405180910390f35b610210600480360381019061020b91906122c9565b610821565b005b61022c6004803603810190610227919061245d565b610841565b6040516102399190612a9f565b60405180910390f35b61025c60048036038101906102579190612264565b6108f3565b6040516102699190612d43565b60405180910390f35b61027a6109ab565b6040516102879190612b21565b60405180910390f35b6102aa60048036038101906102a59190612393565b610a3d565b005b6102c660048036038101906102c1919061245d565b610a53565b6040516102d39190612b21565b60405180910390f35b6102f660048036038101906102f19190612318565b610b71565b005b610312600480360381019061030d919061245d565b610bd3565b60405161031f9190612b21565b60405180910390f35b610342600480360381019061033d919061245d565b610cf1565b60405161034f9190612b21565b60405180910390f35b610360610e43565b005b61037c6004803603810190610377919061228d565b610fea565b6040516103899190612b06565b60405180910390f35b60007f80ac58cd000000000000000000000000000000000000000000000000000000007bffffffffffffffffffffffffffffffffffffffffffffffffffffffff1916827bffffffffffffffffffffffffffffffffffffffffffffffffffffffff1916148061045d57507f5b5e139f000000000000000000000000000000000000000000000000000000007bffffffffffffffffffffffffffffffffffffffffffffffffffffffff1916827bffffffffffffffffffffffffffffffffffffffffffffffffffffffff1916145b8061046d575061046c82611117565b5b9050919050565b60606000805461048390612fd7565b80601f01602080910402602001604051908101604052809291908181526020018280546104af90612fd7565b80156104fc5780601f106104d1576101008083540402835291602001916104fc565b820191906000526020600020905b8154815290600101906020018083116104df57829003601f168201915b5050505050905090565b600061051182611181565b610550576040517f08c379a000000000000000000000000000000000000000000000000000000000815260040161054790612cc3565b60405180910390fd5b6004600083815260200190815260200160002060009054906101000a900473ffffffffffffffffffffffffffffffffffffffff169050919050565b600061059682610841565b90508073ffffffffffffffffffffffffffffffffffffffff168373ffffffffffffffffffffffffffffffffffffffff161415610607576040517f08c379a00000000000000000000000000000000000000000000000000000000081526004016105fe90612d03565b60405180910390fd5b8073ffffffffffffffffffffffffffffffffffffffff166106266111ed565b73ffffffffffffffffffffffffffffffffffffffff16148061065557506106548161064f6111ed565b610fea565b5b610694576040517f08c379a000000000000000000000000000000000000000000000000000000000815260040161068b90612c03565b60405180910390fd5b61069e83836111f5565b505050565b6106b46106ae6111ed565b826112ae565b6106f3576040517f08c379a00000000000000000000000000000000000000000000000000000000081526004016106ea90612d23565b60405180910390fd5b6106fe83838361138c565b505050565b60606000610737610713846115f3565b6040516020016107239190612a5b565b6040516020818303038152906040526117a0565b90506009805490508161074a9190613083565b905060098181548110610786577f4e487b7100000000000000000000000000000000000000000000000000000000600052603260045260246000fd5b90600052602060002001805461079b90612fd7565b80601f01602080910402602001604051908101604052809291908181526020018280546107c790612fd7565b80156108145780601f106107e957610100808354040283529160200191610814565b820191906000526020600020905b8154815290600101906020018083116107f757829003601f168201915b5050505050915050919050565b61083c83838360405180602001604052806000815250610b71565b505050565b6000806002600084815260200190815260200160002060009054906101000a900473ffffffffffffffffffffffffffffffffffffffff169050600073ffffffffffffffffffffffffffffffffffffffff168173ffffffffffffffffffffffffffffffffffffffff1614156108ea576040517f08c379a00000000000000000000000000000000000000000000000000000000081526004016108e190612c43565b60405180910390fd5b80915050919050565b60008073ffffffffffffffffffffffffffffffffffffffff168273ffffffffffffffffffffffffffffffffffffffff161415610964576040517f08c379a000000000000000000000000000000000000000000000000000000000815260040161095b90612c23565b60405180910390fd5b600360008373ffffffffffffffffffffffffffffffffffffffff1673ffffffffffffffffffffffffffffffffffffffff168152602001908152602001600020549050919050565b6060600180546109ba90612fd7565b80601f01602080910402602001604051908101604052809291908181526020018280546109e690612fd7565b8015610a335780601f10610a0857610100808354040283529160200191610a33565b820191906000526020600020905b815481529060010190602001808311610a1657829003601f168201915b5050505050905090565b610a4f610a486111ed565b83836117d3565b5050565b60606000610a87610a63846115f3565b604051602001610a7391906129f4565b6040516020818303038152906040526117a0565b9050600a8054905081610a9a9190613083565b9050600a8181548110610ad6577f4e487b7100000000000000000000000000000000000000000000000000000000600052603260045260246000fd5b906000526020600020018054610aeb90612fd7565b80601f0160208091040260200160405190810160405280929190818152602001828054610b1790612fd7565b8015610b645780601f10610b3957610100808354040283529160200191610b64565b820191906000526020600020905b815481529060010190602001808311610b4757829003601f168201915b5050505050915050919050565b610b82610b7c6111ed565b836112ae565b610bc1576040517f08c379a0000000000000000000000000000000000000000000000000000000008152600401610bb890612d23565b60405180910390fd5b610bcd84848484611940565b50505050565b60606000610c07610be3846115f3565b604051602001610bf391906129d2565b6040516020818303038152906040526117a0565b9050600b8054905081610c1a9190613083565b9050600b8181548110610c56577f4e487b7100000000000000000000000000000000000000000000000000000000600052603260045260246000fd5b906000526020600020018054610c6b90612fd7565b80601f0160208091040260200160405190810160405280929190818152602001828054610c9790612fd7565b8015610ce45780601f10610cb957610100808354040283529160200191610ce4565b820191906000526020600020905b815481529060010190602001808311610cc757829003601f168201915b5050505050915050919050565b6060610cfc82611181565b610d3b576040517f08c379a0000000000000000000000000000000000000000000000000000000008152600401610d3290612ca3565b60405180910390fd5b6000600660008481526020019081526020016000208054610d5b90612fd7565b80601f0160208091040260200160405190810160405280929190818152602001828054610d8790612fd7565b8015610dd45780601f10610da957610100808354040283529160200191610dd4565b820191906000526020600020905b815481529060010190602001808311610db757829003601f168201915b505050505090506000610de561199c565b9050600081511415610dfb578192505050610e3e565b600082511115610e30578082604051602001610e18929190612934565b60405160208183030381529060405292505050610e3e565b610e39846119b3565b925050505b919050565b6000610e4f6007611a5a565b90506000610e5c82610703565b90506000610e6983610a53565b90506000610e7684610bd3565b90506000838383604051602001610e8f93929190612958565b604051602081830303815290604052905060006008858585604051602001610eba9493929190612989565b60405160208183030381529060405290506000610eff83610eda84611a68565b604051602001610eeb929190612a16565b604051602081830303815290604052611a68565b9050600081604051602001610f149190612a7d565b6040516020818303038152906040529050610f636040518060400160405280601581526020017f0a2d2d2d2d2d2d2d2d2d2d2d2d2d2d2d2d2d2d2d2d000000000000000000000081525061107e565b610f6c8161107e565b610faa6040518060400160405280601581526020017f2d2d2d2d2d2d2d2d2d2d2d2d2d2d2d2d2d2d2d2d0a000000000000000000000081525061107e565b610fb43389611c26565b610fd68860405180606001604052806035815260200161385660359139611c44565b610fe06007611cb8565b5050505050505050565b6000600560008473ffffffffffffffffffffffffffffffffffffffff1673ffffffffffffffffffffffffffffffffffffffff16815260200190815260200160002060008373ffffffffffffffffffffffffffffffffffffffff1673ffffffffffffffffffffffffffffffffffffffff16815260200190815260200160002060009054906101000a900460ff16905092915050565b611114816040516024016110929190612b21565b6040516020818303038152906040527f41304fac000000000000000000000000000000000000000000000000000000007bffffffffffffffffffffffffffffffffffffffffffffffffffffffff19166020820180517bffffffffffffffffffffffffffffffffffffffffffffffffffffffff8381831617835250505050611cce565b50565b60007f01ffc9a7000000000000000000000000000000000000000000000000000000007bffffffffffffffffffffffffffffffffffffffffffffffffffffffff1916827bffffffffffffffffffffffffffffffffffffffffffffffffffffffff1916149050919050565b60008073ffffffffffffffffffffffffffffffffffffffff166002600084815260200190815260200160002060009054906101000a900473ffffffffffffffffffffffffffffffffffffffff1673ffffffffffffffffffffffffffffffffffffffff1614159050919050565b600033905090565b816004600083815260200190815260200160002060006101000a81548173ffffffffffffffffffffffffffffffffffffffff021916908373ffffffffffffffffffffffffffffffffffffffff160217905550808273ffffffffffffffffffffffffffffffffffffffff1661126883610841565b73ffffffffffffffffffffffffffffffffffffffff167f8c5be1e5ebec7d5bd14f71427d1e84f3dd0314c0f7b2291e5b200ac8c7c3b92560405160405180910390a45050565b60006112b982611181565b6112f8576040517f08c379a00000000000000000000000000000000000000000000000000000000081526004016112ef90612be3565b60405180910390fd5b600061130383610841565b90508073ffffffffffffffffffffffffffffffffffffffff168473ffffffffffffffffffffffffffffffffffffffff16148061134557506113448185610fea565b5b8061138357508373ffffffffffffffffffffffffffffffffffffffff1661136b84610506565b73ffffffffffffffffffffffffffffffffffffffff16145b91505092915050565b8273ffffffffffffffffffffffffffffffffffffffff166113ac82610841565b73ffffffffffffffffffffffffffffffffffffffff1614611402576040517f08c379a00000000000000000000000000000000000000000000000000000000081526004016113f990612b63565b60405180910390fd5b600073ffffffffffffffffffffffffffffffffffffffff168273ffffffffffffffffffffffffffffffffffffffff161415611472576040517f08c379a000000000000000000000000000000000000000000000000000000000815260040161146990612ba3565b60405180910390fd5b61147d838383611cf7565b6114886000826111f5565b6001600360008573ffffffffffffffffffffffffffffffffffffffff1673ffffffffffffffffffffffffffffffffffffffff16815260200190815260200160002060008282546114d89190612eed565b925050819055506001600360008473ffffffffffffffffffffffffffffffffffffffff1673ffffffffffffffffffffffffffffffffffffffff168152602001908152602001600020600082825461152f9190612e0c565b92505081905550816002600083815260200190815260200160002060006101000a81548173ffffffffffffffffffffffffffffffffffffffff021916908373ffffffffffffffffffffffffffffffffffffffff160217905550808273ffffffffffffffffffffffffffffffffffffffff168473ffffffffffffffffffffffffffffffffffffffff167fddf252ad1be2c89b69c2b068fc378daa952ba7f163c4a11628f55a4df523b3ef60405160405180910390a46115ee838383611cfc565b505050565b6060600082141561163b576040518060400160405280600181526020017f3000000000000000000000000000000000000000000000000000000000000000815250905061179b565b600082905060005b6000821461166d5780806116569061303a565b915050600a826116669190612e62565b9150611643565b60008167ffffffffffffffff8111156116af577f4e487b7100000000000000000000000000000000000000000000000000000000600052604160045260246000fd5b6040519080825280601f01601f1916602001820160405280156116e15781602001600182028036833780820191505090505b5090505b60008514611794576001826116fa9190612eed565b9150600a856117099190613083565b60306117159190612e0c565b60f81b818381518110611751577f4e487b7100000000000000000000000000000000000000000000000000000000600052603260045260246000fd5b60200101907effffffffffffffffffffffffffffffffffffffffffffffffffffffffffffff1916908160001a905350600a8561178d9190612e62565b94506116e5565b8093505050505b919050565b6000816040516020016117b3919061291d565b6040516020818303038152906040528051906020012060001c9050919050565b8173ffffffffffffffffffffffffffffffffffffffff168373ffffffffffffffffffffffffffffffffffffffff161415611842576040517f08c379a000000000000000000000000000000000000000000000000000000000815260040161183990612bc3565b60405180910390fd5b80600560008573ffffffffffffffffffffffffffffffffffffffff1673ffffffffffffffffffffffffffffffffffffffff16815260200190815260200160002060008473ffffffffffffffffffffffffffffffffffffffff1673ffffffffffffffffffffffffffffffffffffffff16815260200190815260200160002060006101000a81548160ff0219169083151502179055508173ffffffffffffffffffffffffffffffffffffffff168373ffffffffffffffffffffffffffffffffffffffff167f17307eab39ab6107e8899845ad3d59bd9653f200f220920489ca2b5937696c31836040516119339190612b06565b60405180910390a3505050565b61194b84848461138c565b61195784848484611d01565b611996576040517f08c379a000000000000000000000000000000000000000000000000000000000815260040161198d90612b43565b60405180910390fd5b50505050565b606060405180602001604052806000815250905090565b60606119be82611181565b6119fd576040517f08c379a00000000000000000000000000000000000000000000000000000000081526004016119f490612ce3565b60405180910390fd5b6000611a0761199c565b90506000815111611a275760405180602001604052806000815250611a52565b80611a31846115f3565b604051602001611a42929190612934565b6040516020818303038152906040525b915050919050565b600081600001549050919050565b60606000825190506000811415611a915760405180602001604052806000815250915050611c21565b60006003600283611aa29190612e0c565b611aac9190612e62565b6004611ab89190612e93565b90506000602082611ac99190612e0c565b67ffffffffffffffff811115611b08577f4e487b7100000000000000000000000000000000000000000000000000000000600052604160045260246000fd5b6040519080825280601f01601f191660200182016040528015611b3a5781602001600182028036833780820191505090505b5090506000604051806060016040528060408152602001613816604091399050600181016020830160005b86811015611bde5760038101905062ffffff818a015116603f8160121c168401518060081b905060ff603f83600c1c1686015116810190508060081b905060ff603f8360061c1686015116810190508060081b905060ff603f831686015116810190508060e01b90508084526004840193505050611b65565b506003860660018114611bf85760028114611c0857611c13565b613d3d60f01b6002830352611c13565b603d60f81b60018303525b508484525050819450505050505b919050565b611c40828260405180602001604052806000815250611e98565b5050565b611c4d82611181565b611c8c576040517f08c379a0000000000000000000000000000000000000000000000000000000008152600401611c8390612c63565b60405180910390fd5b80600660008481526020019081526020016000209080519060200190611cb39291906120f0565b505050565b6001816000016000828254019250508190555050565b60008151905060006a636f6e736f6c652e6c6f679050602083016000808483855afa5050505050565b505050565b505050565b6000611d228473ffffffffffffffffffffffffffffffffffffffff16611ef3565b15611e8b578373ffffffffffffffffffffffffffffffffffffffff1663150b7a02611d4b6111ed565b8786866040518563ffffffff1660e01b8152600401611d6d9493929190612aba565b602060405180830381600087803b158015611d8757600080fd5b505af1925050508015611db857506040513d601f19601f82011682018060405250810190611db59190612434565b60015b611e3b573d8060008114611de8576040519150601f19603f3d011682016040523d82523d6000602084013e611ded565b606091505b50600081511415611e33576040517f08c379a0000000000000000000000000000000000000000000000000000000008152600401611e2a90612b43565b60405180910390fd5b805181602001fd5b63150b7a0260e01b7bffffffffffffffffffffffffffffffffffffffffffffffffffffffff1916817bffffffffffffffffffffffffffffffffffffffffffffffffffffffff191614915050611e90565b600190505b949350505050565b611ea28383611f16565b611eaf6000848484611d01565b611eee576040517f08c379a0000000000000000000000000000000000000000000000000000000008152600401611ee590612b43565b60405180910390fd5b505050565b6000808273ffffffffffffffffffffffffffffffffffffffff163b119050919050565b600073ffffffffffffffffffffffffffffffffffffffff168273ffffffffffffffffffffffffffffffffffffffff161415611f86576040517f08c379a0000000000000000000000000000000000000000000000000000000008152600401611f7d90612c83565b60405180910390fd5b611f8f81611181565b15611fcf576040517f08c379a0000000000000000000000000000000000000000000000000000000008152600401611fc690612b83565b60405180910390fd5b611fdb60008383611cf7565b6001600360008473ffffffffffffffffffffffffffffffffffffffff1673ffffffffffffffffffffffffffffffffffffffff168152602001908152602001600020600082825461202b9190612e0c565b92505081905550816002600083815260200190815260200160002060006101000a81548173ffffffffffffffffffffffffffffffffffffffff021916908373ffffffffffffffffffffffffffffffffffffffff160217905550808273ffffffffffffffffffffffffffffffffffffffff16600073ffffffffffffffffffffffffffffffffffffffff167fddf252ad1be2c89b69c2b068fc378daa952ba7f163c4a11628f55a4df523b3ef60405160405180910390a46120ec60008383611cfc565b5050565b8280546120fc90612fd7565b90600052602060002090601f01602090048101928261211e5760008555612165565b82601f1061213757805160ff1916838001178555612165565b82800160010185558215612165579182015b82811115612164578251825591602001919060010190612149565b5b5090506121729190612176565b5090565b5b8082111561218f576000816000905550600101612177565b5090565b60006121a66121a184612d83565b612d5e565b9050828152602081018484840111156121be57600080fd5b6121c9848285612f95565b509392505050565b6000813590506121e0816137b9565b92915050565b6000813590506121f5816137d0565b92915050565b60008135905061220a816137e7565b92915050565b60008151905061221f816137e7565b92915050565b600082601f83011261223657600080fd5b8135612246848260208601612193565b91505092915050565b60008135905061225e816137fe565b92915050565b60006020828403121561227657600080fd5b6000612284848285016121d1565b91505092915050565b600080604083850312156122a057600080fd5b60006122ae858286016121d1565b92505060206122bf858286016121d1565b9150509250929050565b6000806000606084860312156122de57600080fd5b60006122ec868287016121d1565b93505060206122fd868287016121d1565b925050604061230e8682870161224f565b9150509250925092565b6000806000806080858703121561232e57600080fd5b600061233c878288016121d1565b945050602061234d878288016121d1565b935050604061235e8782880161224f565b925050606085013567ffffffffffffffff81111561237b57600080fd5b61238787828801612225565b91505092959194509250565b600080604083850312156123a657600080fd5b60006123b4858286016121d1565b92505060206123c5858286016121e6565b9150509250929050565b600080604083850312156123e257600080fd5b60006123f0858286016121d1565b92505060206124018582860161224f565b9150509250929050565b60006020828403121561241d57600080fd5b600061242b848285016121fb565b91505092915050565b60006020828403121561244657600080fd5b600061245484828501612210565b91505092915050565b60006020828403121561246f57600080fd5b600061247d8482850161224f565b91505092915050565b61248f81612f21565b82525050565b61249e81612f33565b82525050565b60006124af82612dc9565b6124b98185612ddf565b93506124c9818560208601612fa4565b6124d281613170565b840191505092915050565b60006124e882612dd4565b6124f28185612df0565b9350612502818560208601612fa4565b61250b81613170565b840191505092915050565b600061252182612dd4565b61252b8185612e01565b935061253b818560208601612fa4565b80840191505092915050565b6000815461255481612fd7565b61255e8186612e01565b94506001821660008114612579576001811461258a576125bd565b60ff198316865281860193506125bd565b61259385612db4565b60005b838110156125b557815481890152600182019150602081019050612596565b838801955050505b50505092915050565b60006125d3603283612df0565b91506125de82613181565b604082019050919050565b60006125f6602583612df0565b9150612601826131d0565b604082019050919050565b6000612619601c83612df0565b91506126248261321f565b602082019050919050565b600061263c600a83612e01565b915061264782613248565b600a82019050919050565b600061265f602483612df0565b915061266a82613271565b604082019050919050565b6000612682601983612df0565b915061268d826132c0565b602082019050919050565b60006126a5600b83612e01565b91506126b0826132e9565b600b82019050919050565b60006126c8602c83612df0565b91506126d382613312565b604082019050919050565b60006126eb600d83612e01565b91506126f682613361565b600d82019050919050565b600061270e603883612df0565b91506127198261338a565b604082019050919050565b6000612731602a83612df0565b915061273c826133d9565b604082019050919050565b6000612754602983612df0565b915061275f82613428565b604082019050919050565b6000612777602e83612df0565b915061278282613477565b604082019050919050565b600061279a600283612e01565b91506127a5826134c6565b600282019050919050565b60006127bd602083612df0565b91506127c8826134ef565b602082019050919050565b60006127e0603183612df0565b91506127eb82613518565b604082019050919050565b6000612803602c83612df0565b915061280e82613567565b604082019050919050565b6000612826602f83612df0565b9150612831826135b6565b604082019050919050565b6000612849600a83612e01565b915061285482613605565b600a82019050919050565b600061286c606783612e01565b91506128778261362e565b606782019050919050565b600061288f602183612df0565b915061289a826136c9565b604082019050919050565b60006128b2600a83612e01565b91506128bd82613718565b600a82019050919050565b60006128d5601d83612e01565b91506128e082613741565b601d82019050919050565b60006128f8603183612df0565b91506129038261376a565b604082019050919050565b61291781612f8b565b82525050565b60006129298284612516565b915081905092915050565b60006129408285612516565b915061294c8284612516565b91508190509392505050565b60006129648286612516565b91506129708285612516565b915061297c8284612516565b9150819050949350505050565b60006129958287612547565b91506129a18286612516565b91506129ad8285612516565b91506129b98284612516565b91506129c4826126de565b915081905095945050505050565b60006129dd8261262f565b91506129e98284612516565b915081905092915050565b60006129ff82612698565b9150612a0b8284612516565b915081905092915050565b6000612a218261283c565b9150612a2d8285612516565b9150612a388261285f565b9150612a448284612516565b9150612a4f8261278d565b91508190509392505050565b6000612a66826128a5565b9150612a728284612516565b915081905092915050565b6000612a88826128c8565b9150612a948284612516565b915081905092915050565b6000602082019050612ab46000830184612486565b92915050565b6000608082019050612acf6000830187612486565b612adc6020830186612486565b612ae9604083018561290e565b8181036060830152612afb81846124a4565b905095945050505050565b6000602082019050612b1b6000830184612495565b92915050565b60006020820190508181036000830152612b3b81846124dd565b905092915050565b60006020820190508181036000830152612b5c816125c6565b9050919050565b60006020820190508181036000830152612b7c816125e9565b9050919050565b60006020820190508181036000830152612b9c8161260c565b9050919050565b60006020820190508181036000830152612bbc81612652565b9050919050565b60006020820190508181036000830152612bdc81612675565b9050919050565b60006020820190508181036000830152612bfc816126bb565b9050919050565b60006020820190508181036000830152612c1c81612701565b9050919050565b60006020820190508181036000830152612c3c81612724565b9050919050565b60006020820190508181036000830152612c5c81612747565b9050919050565b60006020820190508181036000830152612c7c8161276a565b9050919050565b60006020820190508181036000830152612c9c816127b0565b9050919050565b60006020820190508181036000830152612cbc816127d3565b9050919050565b60006020820190508181036000830152612cdc816127f6565b9050919050565b60006020820190508181036000830152612cfc81612819565b9050919050565b60006020820190508181036000830152612d1c81612882565b9050919050565b60006020820190508181036000830152612d3c816128eb565b9050919050565b6000602082019050612d58600083018461290e565b92915050565b6000612d68612d79565b9050612d748282613009565b919050565b6000604051905090565b600067ffffffffffffffff821115612d9e57612d9d613141565b5b612da782613170565b9050602081019050919050565b60008190508160005260206000209050919050565b600081519050919050565b600081519050919050565b600082825260208201905092915050565b600082825260208201905092915050565b600081905092915050565b6000612e1782612f8b565b9150612e2283612f8b565b9250827fffffffffffffffffffffffffffffffffffffffffffffffffffffffffffffffff03821115612e5757612e566130b4565b5b828201905092915050565b6000612e6d82612f8b565b9150612e7883612f8b565b925082612e8857612e876130e3565b5b828204905092915050565b6000612e9e82612f8b565b9150612ea983612f8b565b9250817fffffffffffffffffffffffffffffffffffffffffffffffffffffffffffffffff0483118215151615612ee257612ee16130b4565b5b828202905092915050565b6000612ef882612f8b565b9150612f0383612f8b565b925082821015612f1657612f156130b4565b5b828203905092915050565b6000612f2c82612f6b565b9050919050565b60008115159050919050565b60007fffffffff0000000000000000000000000000000000000000000000000000000082169050919050565b600073ffffffffffffffffffffffffffffffffffffffff82169050919050565b6000819050919050565b82818337600083830152505050565b60005b83811015612fc2578082015181840152602081019050612fa7565b83811115612fd1576000848401525b50505050565b60006002820490506001821680612fef57607f821691505b6020821081141561300357613002613112565b5b50919050565b61301282613170565b810181811067ffffffffffffffff8211171561303157613030613141565b5b80604052505050565b600061304582612f8b565b91507fffffffffffffffffffffffffffffffffffffffffffffffffffffffffffffffff821415613078576130776130b4565b5b600182019050919050565b600061308e82612f8b565b915061309983612f8b565b9250826130a9576130a86130e3565b5b828206905092915050565b7f4e487b7100000000000000000000000000000000000000000000000000000000600052601160045260246000fd5b7f4e487b7100000000000000000000000000000000000000000000000000000000600052601260045260246000fd5b7f4e487b7100000000000000000000000000000000000000000000000000000000600052602260045260246000fd5b7f4e487b7100000000000000000000000000000000000000000000000000000000600052604160045260246000fd5b6000601f19601f8301169050919050565b7f4552433732313a207472616e7366657220746f206e6f6e20455243373231526560008201527f63656976657220696d706c656d656e7465720000000000000000000000000000602082015250565b7f4552433732313a207472616e736665722066726f6d20696e636f72726563742060008201527f6f776e6572000000000000000000000000000000000000000000000000000000602082015250565b7f4552433732313a20746f6b656e20616c7265616479206d696e74656400000000600082015250565b7f54484952445f574f524400000000000000000000000000000000000000000000600082015250565b7f4552433732313a207472616e7366657220746f20746865207a65726f2061646460008201527f7265737300000000000000000000000000000000000000000000000000000000602082015250565b7f4552433732313a20617070726f766520746f2063616c6c657200000000000000600082015250565b7f5345434f4e445f574f5244000000000000000000000000000000000000000000600082015250565b7f4552433732313a206f70657261746f7220717565727920666f72206e6f6e657860008201527f697374656e7420746f6b656e0000000000000000000000000000000000000000602082015250565b7f3c2f746578743e3c2f7376673e00000000000000000000000000000000000000600082015250565b7f4552433732313a20617070726f76652063616c6c6572206973206e6f74206f7760008201527f6e6572206e6f7220617070726f76656420666f7220616c6c0000000000000000602082015250565b7f4552433732313a2062616c616e636520717565727920666f7220746865207a6560008201527f726f206164647265737300000000000000000000000000000000000000000000602082015250565b7f4552433732313a206f776e657220717565727920666f72206e6f6e657869737460008201527f656e7420746f6b656e0000000000000000000000000000000000000000000000602082015250565b7f45524337323155524953746f726167653a2055524920736574206f66206e6f6e60008201527f6578697374656e7420746f6b656e000000000000000000000000000000000000602082015250565b7f227d000000000000000000000000000000000000000000000000000000000000600082015250565b7f4552433732313a206d696e7420746f20746865207a65726f2061646472657373600082015250565b7f45524337323155524953746f726167653a2055524920717565727920666f722060008201527f6e6f6e6578697374656e7420746f6b656e000000000000000000000000000000602082015250565b7f4552433732313a20617070726f76656420717565727920666f72206e6f6e657860008201527f697374656e7420746f6b656e0000000000000000000000000000000000000000602082015250565b7f4552433732314d657461646174613a2055524920717565727920666f72206e6f60008201527f6e6578697374656e7420746f6b656e0000000000000000000000000000000000602082015250565b7f7b226e616d65223a202200000000000000000000000000000000000000000000600082015250565b7f222c20226465736372697074696f6e223a20224120686967686c79206163636c60008201527f61696d656420636f6c6c656374696f6e206f6620466f6f7442616c6c4e46542e60208201527f222c2022696d616765223a2022646174613a696d6167652f7376672b786d6c3b60408201527f6261736536342c00000000000000000000000000000000000000000000000000606082015250565b7f4552433732313a20617070726f76616c20746f2063757272656e74206f776e6560008201527f7200000000000000000000000000000000000000000000000000000000000000602082015250565b7f46495253545f574f524400000000000000000000000000000000000000000000600082015250565b7f646174613a6170706c69636174696f6e2f6a736f6e3b6261736536342c000000600082015250565b7f4552433732313a207472616e736665722063616c6c6572206973206e6f74206f60008201527f776e6572206e6f7220617070726f766564000000000000000000000000000000602082015250565b6137c281612f21565b81146137cd57600080fd5b50565b6137d981612f33565b81146137e457600080fd5b50565b6137f081612f3f565b81146137fb57600080fd5b50565b61380781612f8b565b811461381257600080fd5b5056fe4142434445464748494a4b4c4d4e4f505152535455565758595a6162636465666768696a6b6c6d6e6f707172737475767778797a303132333435363738392b2f697066733a2f2f516d5a4b525146525146726a617a38447835534b535079655657333171376e3747544342767834795150574a456fa2646970667358221220a735e173e432241d85a5f922199a0e74696cc8d17ca0fe9eb6258c1a523175e164736f6c634300080100333c73766720786d6c6e733d27687474703a2f2f7777772e77332e6f72672f323030302f73766727207072657365727665417370656374526174696f3d27784d696e594d696e206d656574272076696577426f783d273020302033353020333530273e3c7374796c653e2e62617365207b2066696c6c3a2077686974653b20666f6e742d66616d696c793a2073657269663b20666f6e742d73697a653a20323470783b207d3c2f7374796c653e3c726563742077696474683d273130302527206865696768743d2731303025272066696c6c3d27626c61636b27202f3e3c7465787420783d273530252720793d273530252720636c6173733d27626173652720646f6d696e616e742d626173656c696e653d276d6964646c652720746578742d616e63686f723d276d6964646c65273e",
  "linkReferences": {},
  "deployedLinkReferences": {}
}